{
  "contractName": "Influencers",
  "abi": [
    {
      "constant": true,
      "inputs": [
        {
          "name": "",
          "type": "address"
        }
      ],
      "name": "influencerInfo",
      "outputs": [
        {
          "name": "influencerAddress",
          "type": "address"
        },
        {
          "name": "influenceCounter",
          "type": "uint256"
        },
        {
          "name": "moneyEarned",
          "type": "uint256"
        }
      ],
      "payable": false,
      "stateMutability": "view",
      "type": "function"
    },
    {
      "inputs": [
        {
          "name": "addr",
          "type": "address"
        }
      ],
      "payable": false,
      "stateMutability": "nonpayable",
      "type": "constructor"
    },
    {
      "constant": true,
      "inputs": [
        {
          "name": "inf",
          "type": "address"
        }
      ],
      "name": "getCounter",
      "outputs": [
        {
          "name": "",
          "type": "uint256"
        }
      ],
      "payable": false,
      "stateMutability": "view",
      "type": "function"
    },
    {
      "constant": false,
      "inputs": [
        {
          "name": "inf",
          "type": "address"
        },
        {
          "name": "pid",
          "type": "uint256"
        }
      ],
      "name": "updateCounter",
      "outputs": [],
      "payable": false,
      "stateMutability": "nonpayable",
      "type": "function"
    },
    {
      "constant": true,
      "inputs": [
        {
          "name": "inf",
          "type": "address"
        }
      ],
      "name": "getMoneyEarned",
      "outputs": [
        {
          "name": "",
          "type": "uint256"
        }
      ],
      "payable": false,
      "stateMutability": "view",
      "type": "function"
    },
    {
      "constant": false,
      "inputs": [],
      "name": "addInfluencer",
      "outputs": [],
      "payable": false,
      "stateMutability": "nonpayable",
      "type": "function"
    }
  ],
  "bytecode": "0x608060405234801561001057600080fd5b506040516020806108418339810180604052810190808051906020019092919050505080600160006101000a81548173ffffffffffffffffffffffffffffffffffffffff021916908373ffffffffffffffffffffffffffffffffffffffff160217905550506107bd806100846000396000f30060806040526004361061006d576000357c0100000000000000000000000000000000000000000000000000000000900463ffffffff1680634f5b166314610072578063979828e614610103578063b22764ac14610150578063d24e794b146101a7578063f07ec373146101be575b600080fd5b34801561007e57600080fd5b506100b3600480360381019080803573ffffffffffffffffffffffffffffffffffffffff169060200190929190505050610215565b604051808473ffffffffffffffffffffffffffffffffffffffff1673ffffffffffffffffffffffffffffffffffffffff168152602001838152602001828152602001935050505060405180910390f35b34801561010f57600080fd5b5061014e600480360381019080803573ffffffffffffffffffffffffffffffffffffffff1690602001909291908035906020019092919050505061025f565b005b34801561015c57600080fd5b50610191600480360381019080803573ffffffffffffffffffffffffffffffffffffffff169060200190929190505050610665565b6040518082815260200191505060405180910390f35b3480156101b357600080fd5b506101bc6106b0565b005b3480156101ca57600080fd5b506101ff600480360381019080803573ffffffffffffffffffffffffffffffffffffffff169060200190929190505050610746565b6040518082815260200191505060405180910390f35b60006020528060005260406000206000915090508060000160009054906101000a900473ffffffffffffffffffffffffffffffffffffffff16908060010154908060020154905083565b6000826000808573ffffffffffffffffffffffffffffffffffffffff1673ffffffffffffffffffffffffffffffffffffffff16815260200190815260200160002060000160006101000a81548173ffffffffffffffffffffffffffffffffffffffff021916908373ffffffffffffffffffffffffffffffffffffffff16021790555060016000808573ffffffffffffffffffffffffffffffffffffffff1673ffffffffffffffffffffffffffffffffffffffff16815260200190815260200160002060010160008282540192505081905550600160009054906101000a900473ffffffffffffffffffffffffffffffffffffffff1673ffffffffffffffffffffffffffffffffffffffff1663fbddfb0b836040518263ffffffff167c010000000000000000000000000000000000000000000000000000000002815260040180828152602001915050600060405180830381600087803b1580156103c257600080fd5b505af11580156103d6573d6000803e3d6000fd5b50505050600160009054906101000a900473ffffffffffffffffffffffffffffffffffffffff1673ffffffffffffffffffffffffffffffffffffffff1663b93a89f7836040518263ffffffff167c010000000000000000000000000000000000000000000000000000000002815260040180828152602001915050600060405180830381600087803b15801561046b57600080fd5b505af115801561047f573d6000803e3d6000fd5b505050506040513d6000823e3d601f19601f8201168201806040525060c08110156104a957600080fd5b81019080805190602001909291908051906020019092919080516401000000008111156104d557600080fd5b828101905060208101848111156104eb57600080fd5b815185600182028301116401000000008211171561050857600080fd5b5050929190602001805164010000000081111561052457600080fd5b8281019050602081018481111561053a57600080fd5b815185600182028301116401000000008211171561055757600080fd5b5050929190602001805164010000000081111561057357600080fd5b8281019050602081018481111561058957600080fd5b81518560018202830111640100000000821117156105a657600080fd5b505092919060200180516401000000008111156105c257600080fd5b828101905060208101848111156105d857600080fd5b81518560018202830111640100000000821117156105f557600080fd5b50509291905050509091929394509091925090915090505080915050806000808573ffffffffffffffffffffffffffffffffffffffff1673ffffffffffffffffffffffffffffffffffffffff16815260200190815260200160002060020160008282540192505081905550505050565b60008060008373ffffffffffffffffffffffffffffffffffffffff1673ffffffffffffffffffffffffffffffffffffffff168152602001908152602001600020600201549050919050565b600033905060008060008373ffffffffffffffffffffffffffffffffffffffff1673ffffffffffffffffffffffffffffffffffffffff1681526020019081526020016000206001018190555060008060008373ffffffffffffffffffffffffffffffffffffffff1673ffffffffffffffffffffffffffffffffffffffff1681526020019081526020016000206002018190555050565b60008060008373ffffffffffffffffffffffffffffffffffffffff1673ffffffffffffffffffffffffffffffffffffffff1681526020019081526020016000206001015490509190505600a165627a7a7230582030254a4b923928e12cd6019e996b410f4b4bd1ecc382917a02e26071821f86690029",
  "source": "pragma solidity ^0.4.18; // We have to specify what version of the compiler this code will use\n\ncontract Products {\n  function getDetails(uint) view public returns (address,uint,string,string,string,string) {}\n  function decInfluences(uint) public {}\n}\n\ncontract Influencers {\n\n  // We use the struct datatype to store the influencer information.\n  struct influencer {\n    address influencerAddress; // The address of the influencer\n    uint influenceCounter;    // The total no. of links visited due to this influencer\n    uint moneyEarned;\n  }\n\n  /* mapping is equivalent to an associate array or hash\n   The key of the mapping is candidate name stored as type bytes32 and value is\n   an unsigned integer which used to store the vote count\n   */\n\n   mapping (address => influencer) public influencerInfo;\n   address productAddress;\n\n  // Constructor\n   constructor(address addr) public {\n    productAddress=addr;\n  }\n  \n  function getCounter(address inf) view public returns (uint) {\n    return (influencerInfo[inf].influenceCounter);\n  }\n  \n  function updateCounter(address inf, uint pid) public {\n    influencerInfo[inf].influencerAddress = inf;\n    influencerInfo[inf].influenceCounter += 1;\n    Products(productAddress).decInfluences(pid);\n    uint pricePerInfluence;\n    (,pricePerInfluence,,,,) = Products(productAddress).getDetails(pid);\n    influencerInfo[inf].moneyEarned += pricePerInfluence;\n  }\n\n  function getMoneyEarned(address inf)view public returns(uint){\n    return (influencerInfo[inf].moneyEarned);\n  }\n\n  function addInfluencer() public{\n    address inf = msg.sender;\n    influencerInfo[inf].influenceCounter=0;\n    influencerInfo[inf].moneyEarned=0;\n  }\n}",
  "sourcePath": "/home/user/Desktop/Hackathon/Emporium DApp/contracts/Influencers.sol",
  "compiler": {
    "name": "solc",
    "version": "0.4.24+commit.e67f0147.Emscripten.clang"
  },
  "schemaVersion": "2.0.0",
  "updatedAt": "2018-06-28T13:38:54.768Z"
}