{
  "contractName": "Products",
  "abi": [
    {
      "constant": true,
      "inputs": [],
      "name": "totProducts",
      "outputs": [
        {
          "name": "",
          "type": "uint256"
        }
      ],
      "payable": false,
      "stateMutability": "view",
      "type": "function"
    },
    {
      "constant": true,
      "inputs": [
        {
          "name": "",
          "type": "uint256"
        }
      ],
      "name": "productInfo",
      "outputs": [
        {
          "name": "adAddress",
          "type": "address"
        },
        {
          "name": "productText",
          "type": "string"
        },
        {
          "name": "img_link",
          "type": "string"
        },
        {
          "name": "title",
          "type": "string"
        },
        {
          "name": "productLink",
          "type": "string"
        },
        {
          "name": "pricePerInfluence",
          "type": "uint256"
        },
        {
          "name": "noOfInfluences",
          "type": "uint256"
        }
      ],
      "payable": false,
      "stateMutability": "view",
      "type": "function"
    },
    {
      "inputs": [],
      "payable": false,
      "stateMutability": "nonpayable",
      "type": "constructor"
    },
    {
      "constant": true,
      "inputs": [
        {
          "name": "pro",
          "type": "uint256"
        }
      ],
      "name": "getDetails",
      "outputs": [
        {
          "name": "",
          "type": "address"
        },
        {
          "name": "",
          "type": "uint256"
        },
        {
          "name": "",
          "type": "string"
        },
        {
          "name": "",
          "type": "string"
        },
        {
          "name": "",
          "type": "string"
        },
        {
          "name": "",
          "type": "string"
        },
        {
          "name": "",
          "type": "uint256"
        }
      ],
      "payable": false,
      "stateMutability": "view",
      "type": "function"
    },
    {
      "constant": false,
      "inputs": [
        {
          "name": "pro",
          "type": "uint256"
        }
      ],
      "name": "decInfluences",
      "outputs": [],
      "payable": false,
      "stateMutability": "nonpayable",
      "type": "function"
    },
    {
      "constant": false,
      "inputs": [
        {
          "name": "productText",
          "type": "string"
        },
        {
          "name": "img_link",
          "type": "string"
        },
        {
          "name": "title",
          "type": "string"
        },
        {
          "name": "productLink",
          "type": "string"
        },
        {
          "name": "pricePerInfluence",
          "type": "uint256"
        },
        {
          "name": "noOfInfluences",
          "type": "uint256"
        }
      ],
      "name": "addProduct",
      "outputs": [],
      "payable": false,
      "stateMutability": "nonpayable",
      "type": "function"
    }
  ],
  "bytecode": "0x608060405234801561001057600080fd5b506000600181905550610ecf806100286000396000f30060806040526004361061006d576000357c0100000000000000000000000000000000000000000000000000000000900463ffffffff168063326034281461007257806361655e121461009d578063b93a89f7146101ec578063bb119f6e14610417578063fbddfb0b14610642575b600080fd5b34801561007e57600080fd5b5061008761066f565b6040518082815260200191505060405180910390f35b3480156100a957600080fd5b506101ea600480360381019080803590602001908201803590602001908080601f0160208091040260200160405190810160405280939291908181526020018383808284378201915050505050509192919290803590602001908201803590602001908080601f0160208091040260200160405190810160405280939291908181526020018383808284378201915050505050509192919290803590602001908201803590602001908080601f0160208091040260200160405190810160405280939291908181526020018383808284378201915050505050509192919290803590602001908201803590602001908080601f01602080910402602001604051908101604052809392919081815260200183838082843782019150505050505091929192908035906020019092919080359060200190929190505050610675565b005b3480156101f857600080fd5b50610217600480360381019080803590602001909291905050506107cb565b604051808873ffffffffffffffffffffffffffffffffffffffff1673ffffffffffffffffffffffffffffffffffffffff1681526020018781526020018060200180602001806020018060200186815260200185810385528a818151815260200191508051906020019080838360005b838110156102a1578082015181840152602081019050610286565b50505050905090810190601f1680156102ce5780820380516001836020036101000a031916815260200191505b50858103845289818151815260200191508051906020019080838360005b838110156103075780820151818401526020810190506102ec565b50505050905090810190601f1680156103345780820380516001836020036101000a031916815260200191505b50858103835288818151815260200191508051906020019080838360005b8381101561036d578082015181840152602081019050610352565b50505050905090810190601f16801561039a5780820380516001836020036101000a031916815260200191505b50858103825287818151815260200191508051906020019080838360005b838110156103d35780820151818401526020810190506103b8565b50505050905090810190601f1680156104005780820380516001836020036101000a031916815260200191505b509b50505050505050505050505060405180910390f35b34801561042357600080fd5b5061044260048036038101908080359060200190929190505050610b15565b604051808873ffffffffffffffffffffffffffffffffffffffff1673ffffffffffffffffffffffffffffffffffffffff1681526020018060200180602001806020018060200187815260200186815260200185810385528b818151815260200191508051906020019080838360005b838110156104cc5780820151818401526020810190506104b1565b50505050905090810190601f1680156104f95780820380516001836020036101000a031916815260200191505b5085810384528a818151815260200191508051906020019080838360005b83811015610532578082015181840152602081019050610517565b50505050905090810190601f16801561055f5780820380516001836020036101000a031916815260200191505b50858103835289818151815260200191508051906020019080838360005b8381101561059857808201518184015260208101905061057d565b50505050905090810190601f1680156105c55780820380516001836020036101000a031916815260200191505b50858103825288818151815260200191508051906020019080838360005b838110156105fe5780820151818401526020810190506105e3565b50505050905090810190601f16801561062b5780820380516001836020036101000a031916815260200191505b509b50505050505050505050505060405180910390f35b34801561064e57600080fd5b5061066d60048036038101908080359060200190929190505050610dd7565b005b60015481565b6001806000828254019250508190555033600080600154815260200190815260200160002060000160006101000a81548173ffffffffffffffffffffffffffffffffffffffff021916908373ffffffffffffffffffffffffffffffffffffffff1602179055508560008060015481526020019081526020016000206001019080519060200190610706929190610dfe565b508460008060015481526020019081526020016000206002019080519060200190610732929190610dfe565b50836000806001548152602001908152602001600020600301908051906020019061075e929190610dfe565b50826000806001548152602001908152602001600020600401908051906020019061078a929190610dfe565b508160008060015481526020019081526020016000206005018190555080600080600154815260200190815260200160002060060181905550505050505050565b600080606080606080600080600089815260200190815260200160002060000160009054906101000a900473ffffffffffffffffffffffffffffffffffffffff166000808a8152602001908152602001600020600501546000808b81526020019081526020016000206002016000808c81526020019081526020016000206001016000808d81526020019081526020016000206004016000808e81526020019081526020016000206003016000808f815260200190815260200160002060060154848054600181600116156101000203166002900480601f0160208091040260200160405190810160405280929190818152602001828054600181600116156101000203166002900480156109215780601f106108f657610100808354040283529160200191610921565b820191906000526020600020905b81548152906001019060200180831161090457829003601f168201915b50505050509450838054600181600116156101000203166002900480601f0160208091040260200160405190810160405280929190818152602001828054600181600116156101000203166002900480156109bd5780601f10610992576101008083540402835291602001916109bd565b820191906000526020600020905b8154815290600101906020018083116109a057829003601f168201915b50505050509350828054600181600116156101000203166002900480601f016020809104026020016040519081016040528092919081815260200182805460018160011615610100020316600290048015610a595780601f10610a2e57610100808354040283529160200191610a59565b820191906000526020600020905b815481529060010190602001808311610a3c57829003601f168201915b50505050509250818054600181600116156101000203166002900480601f016020809104026020016040519081016040528092919081815260200182805460018160011615610100020316600290048015610af55780601f10610aca57610100808354040283529160200191610af5565b820191906000526020600020905b815481529060010190602001808311610ad857829003601f168201915b505050505091509650965096509650965096509650919395979092949650565b60006020528060005260406000206000915090508060000160009054906101000a900473ffffffffffffffffffffffffffffffffffffffff1690806001018054600181600116156101000203166002900480601f016020809104026020016040519081016040528092919081815260200182805460018160011615610100020316600290048015610be75780601f10610bbc57610100808354040283529160200191610be7565b820191906000526020600020905b815481529060010190602001808311610bca57829003601f168201915b505050505090806002018054600181600116156101000203166002900480601f016020809104026020016040519081016040528092919081815260200182805460018160011615610100020316600290048015610c855780601f10610c5a57610100808354040283529160200191610c85565b820191906000526020600020905b815481529060010190602001808311610c6857829003601f168201915b505050505090806003018054600181600116156101000203166002900480601f016020809104026020016040519081016040528092919081815260200182805460018160011615610100020316600290048015610d235780601f10610cf857610100808354040283529160200191610d23565b820191906000526020600020905b815481529060010190602001808311610d0657829003601f168201915b505050505090806004018054600181600116156101000203166002900480601f016020809104026020016040519081016040528092919081815260200182805460018160011615610100020316600290048015610dc15780601f10610d9657610100808354040283529160200191610dc1565b820191906000526020600020905b815481529060010190602001808311610da457829003601f168201915b5050505050908060050154908060060154905087565b60016000808381526020019081526020016000206006016000828254039250508190555050565b828054600181600116156101000203166002900490600052602060002090601f016020900481019282601f10610e3f57805160ff1916838001178555610e6d565b82800160010185558215610e6d579182015b82811115610e6c578251825591602001919060010190610e51565b5b509050610e7a9190610e7e565b5090565b610ea091905b80821115610e9c576000816000905550600101610e84565b5090565b905600a165627a7a72305820ccc3b772db904344020d978e414dfb03f946570e97850dd69eb49eecc07364780029",
  "source": "pragma solidity ^0.4.18; // We have to specify what version of the compiler this code will use\n\ncontract Products {\n  // We use the struct datatype to store the influencer information.\n  struct product {\n    address adAddress; // The address of the advertiser\n    string productText;\n    string img_link;\n    string title;\n    string productLink;\n    uint pricePerInfluence;\n    uint noOfInfluences;\n  }\n\n  /* mapping is equivalent to an associate array or hash\n   The key of the mapping is candidate name stored as type bytes32 and value is\n   an unsigned integer which used to store the vote count\n   */\n\n   mapping (uint => product) public productInfo;\n   uint public totProducts;\n\n  // Constructor\n  constructor() public {\n    totProducts = 0;\n  }\n  \n  function getDetails(uint pro) view public returns (address, uint, string, string, string, string, uint) { // returns pricePerInfluence\n    return (productInfo[pro].adAddress,productInfo[pro].pricePerInfluence,productInfo[pro].img_link,productInfo[pro].productText,productInfo[pro].productLink,productInfo[pro].title,productInfo[pro].noOfInfluences);    \n  }\n\n\n  function decInfluences(uint pro) public {\n    productInfo[pro].noOfInfluences -= 1;\n  }\n\n  function addProduct(string productText, string img_link, string title, string productLink, uint pricePerInfluence,uint noOfInfluences) public {\n    totProducts += 1;\n    productInfo[totProducts].adAddress = msg.sender;\n    productInfo[totProducts].productText = productText;\n    productInfo[totProducts].img_link = img_link;\n    productInfo[totProducts].title = title;\n    productInfo[totProducts].productLink = productLink;\n    productInfo[totProducts].pricePerInfluence = pricePerInfluence;\n    productInfo[totProducts].noOfInfluences = noOfInfluences;\n  }\n\n}",
  "sourcePath": "/home/user/Desktop/Hackathon/Emporium DApp/contracts/Products.sol",
  "compiler": {
    "name": "solc",
    "version": "0.4.24+commit.e67f0147.Emscripten.clang"
  },
  "schemaVersion": "2.0.0",
  "updatedAt": "2018-06-28T13:38:54.784Z"
}