{
  "contractName": "Users",
  "abi": [
    {
      "constant": true,
      "inputs": [
        {
          "name": "",
          "type": "address"
        }
      ],
      "name": "holderInfo",
      "outputs": [
        {
          "name": "holderAddress",
          "type": "address"
        },
        {
          "name": "tokensBought",
          "type": "uint256"
        }
      ],
      "payable": false,
      "stateMutability": "view",
      "type": "function"
    },
    {
      "constant": true,
      "inputs": [],
      "name": "tokenPrice",
      "outputs": [
        {
          "name": "",
          "type": "uint256"
        }
      ],
      "payable": false,
      "stateMutability": "view",
      "type": "function"
    },
    {
      "inputs": [
        {
          "name": "pricePerToken",
          "type": "uint256"
        }
      ],
      "payable": false,
      "stateMutability": "nonpayable",
      "type": "constructor"
    },
    {
      "constant": true,
      "inputs": [],
      "name": "getHolderTokens",
      "outputs": [
        {
          "name": "",
          "type": "uint256"
        }
      ],
      "payable": false,
      "stateMutability": "view",
      "type": "function"
    },
    {
      "constant": false,
      "inputs": [
        {
          "name": "numTokens",
          "type": "uint256"
        }
      ],
      "name": "useHolderTokens",
      "outputs": [],
      "payable": false,
      "stateMutability": "nonpayable",
      "type": "function"
    },
    {
      "constant": false,
      "inputs": [],
      "name": "buy",
      "outputs": [
        {
          "name": "",
          "type": "uint256"
        }
      ],
      "payable": true,
      "stateMutability": "payable",
      "type": "function"
    }
  ],
  "bytecode": "0x608060405234801561001057600080fd5b506040516020806104b38339810180604052810190808051906020019092919050505080600181905550506104698061004a6000396000f30060806040526004361061006d576000357c0100000000000000000000000000000000000000000000000000000000900463ffffffff1680632fe7a117146100725780636d1d59a81461009d5780637ff9b596146101275780638eb2fa3214610152578063a6f2ae3a1461017f575b600080fd5b34801561007e57600080fd5b5061008761019d565b6040518082815260200191505060405180910390f35b3480156100a957600080fd5b506100de600480360381019080803573ffffffffffffffffffffffffffffffffffffffff1690602001909291905050506101e6565b604051808373ffffffffffffffffffffffffffffffffffffffff1673ffffffffffffffffffffffffffffffffffffffff1681526020018281526020019250505060405180910390f35b34801561013357600080fd5b5061013c61022a565b6040518082815260200191505060405180910390f35b34801561015e57600080fd5b5061017d60048036038101908080359060200190929190505050610230565b005b610187610354565b6040518082815260200191505060405180910390f35b60008060003373ffffffffffffffffffffffffffffffffffffffff1673ffffffffffffffffffffffffffffffffffffffff16815260200190815260200160002060010154905090565b60006020528060005260406000206000915090508060000160009054906101000a900473ffffffffffffffffffffffffffffffffffffffff16908060010154905082565b60015481565b336000803373ffffffffffffffffffffffffffffffffffffffff1673ffffffffffffffffffffffffffffffffffffffff16815260200190815260200160002060000160006101000a81548173ffffffffffffffffffffffffffffffffffffffff021916908373ffffffffffffffffffffffffffffffffffffffff1602179055506000816000803373ffffffffffffffffffffffffffffffffffffffff1673ffffffffffffffffffffffffffffffffffffffff168152602001908152602001600020600101540311151561030257600080fd5b806000803373ffffffffffffffffffffffffffffffffffffffff1673ffffffffffffffffffffffffffffffffffffffff1681526020019081526020016000206001016000828254039250508190555050565b6000806001543481151561036457fe5b049050336000803373ffffffffffffffffffffffffffffffffffffffff1673ffffffffffffffffffffffffffffffffffffffff16815260200190815260200160002060000160006101000a81548173ffffffffffffffffffffffffffffffffffffffff021916908373ffffffffffffffffffffffffffffffffffffffff160217905550806000803373ffffffffffffffffffffffffffffffffffffffff1673ffffffffffffffffffffffffffffffffffffffff1681526020019081526020016000206001016000828254019250508190555080915050905600a165627a7a72305820ef66e4e8481670eb2ed980d0c5f1b257f412b990a6619cc2aae8678120f3bcd70029",
  "source": "pragma solidity ^0.4.18; // We have to specify what version of the compiler this code will use\n\ncontract Users {\n\n  struct holder {\n    address holderAddress; // The address of the holder\n    uint tokensBought; // The total no. of tokens Bought due to this holder\n  }\n\n  /* mapping is equivalent to an associate array or hash\n   The key of the mapping is candidate name stored as type bytes32 and value is\n   an unsigned integer which used to store the vote count\n   */\n\n  mapping (address => holder) public holderInfo;\n  uint public tokenPrice; // Price per token\n\n  // Constructor\n  constructor(uint pricePerToken) public {\n      tokenPrice = pricePerToken;\n  }\n  \n  function getHolderTokens() view public returns (uint) {\n    return (holderInfo[msg.sender].tokensBought);\n  }\n\n  function useHolderTokens(uint numTokens) public {\n    holderInfo[msg.sender].holderAddress = msg.sender;\n    require(holderInfo[msg.sender].tokensBought - numTokens > 0);\n    holderInfo[msg.sender].tokensBought -= numTokens;\n  }\n  \n  /* This function is used to purchase the tokens. Note the keyword 'payable'\n   below. By just adding that one keyword to a function, your contract can\n   now accept Ether from anyone who calls this function. Accepting money can\n   not get any easier than this!\n   */\n  function buy() payable public returns (uint) {\n    uint tokensToBuy = msg.value / tokenPrice;\n    holderInfo[msg.sender].holderAddress = msg.sender;\n    holderInfo[msg.sender].tokensBought += tokensToBuy;\n    return tokensToBuy;\n  }\n}",
  "sourcePath": "/home/user/Desktop/Hackathon/Emporium DApp/contracts/Users.sol",
  "compiler": {
    "name": "solc",
    "version": "0.4.24+commit.e67f0147.Emscripten.clang"
  },
  "schemaVersion": "2.0.0",
  "updatedAt": "2018-06-28T13:38:54.757Z"
}